:020000040800F2
:10000000300900204102000841320008452E000856
:100010003D320008650E00084D3500080000000064
:10002000000000000000000000000000493200084D
:10003000690E000800000000453200084D3200083B
:100040005B0200085B0200085B0200085B0200081C
:100050005B0200085B0200085B0200085B0200080C
:100060005B0200085B0200085B0200085B020008FC
:100070005B0200085B0200085B0200085B020008EC
:100080005B0200085B0200085B0200085B020008DC
:100090005B0200085B0200085B0200085B020008CC
:1000A0005B0200085B0200085B0200085B020008BC
:1000B000153300085B0200085B0200085B020008C1
:1000C0005B0200085B0200085B0200085B0200089C
:1000D0005B0200085B0200085B0200085B0200088C
:1000E0005B0200085B0200085B0200085B0200087C
:1000F0005B0200085B0200085B0200085B0200086C
:100100005B0200085B0200085B0200085B0200085B
:100110005B0200085B0200085B0200085B0200084B
:100120005B0200085B0200085B0200085B0200083B
:100130005B0200085B0200085B0200085B0200082B
:100140005B0200085B0200085B0200085B0200081B
:100150005B0200085B0200085B0200085B0200080B
:100160005B0200085B0200085B0200085B020008FB
:100170005B0200085B0200085B0200080000000050
:100180005B0200085B02000800F002F800F049F88A
:100190000AA090E8000C82448344AAF10107DA45E2
:1001A00001D100F03EF8AFF2090EBAE80F0013F0EB
:1001B000010F18BFFB1A43F001031847343C00003D
:1001C000543C0000103A24BF78C878C1FAD85207CE
:1001D00024BF30C830C144BF04680C6070470000C1
:1001E0000023002400250026103A28BF78C1FBD840
:1001F000520728BF30C148BF0B607047642900F028
:100200000B81002070471FB503F0BAFD9DE8030085
:1002100000F00EFC00F00AFA1FBD10B500F06FFAF6
:1002200010BD00F09FFA1146FFF7EDFF03F0C2FC8E
:1002300000F0A6FB03B4FFF7F0FF03BC00F076FD6F
:100240000948804709480047FEE7FEE7FEE7FEE76A
:10025000FEE7FEE7FEE7FEE7FEE7FEE704480549A6
:10026000054A064B70470000013300088901000869
:100270003003002030090020300500203005002028
:1002800053EA020C00F069802DE9F04B4FF00006B4
:10029000002B1FBFB3FA83F503FA05F424FA05F621
:1002A0005E4012BF1643B2FA82F502FA05F4C5F1B8
:1002B00020051EBF22FA05FC44EA0C04203556EA4C
:1002C000044C4FEA144418BF641C4FF000084FF070
:1002D0000009904271EB030C39D3002919BFB1FA20
:1002E00081F701FA07F6B0FA80F700FA07F6C7F1CE
:1002F00020071EBF20FA07FC46EA0C062037B6FB93
:10030000F4FCA7EB0507103F07F01F0BCBF120060D
:100310002CFA06F60CFA0BFB44BFB3460026202F3E
:10032000A4BF5E464FF0000B5BEA060C08BF4FF01F
:10033000010B19EB0B0948EB0608ABFB027C06FB33
:1003400002CC0BFB03CCC01B71EB0C01C1E70B46CD
:10035000024641464846BDE8F08B13B5084318BF36
:100360004FF0FF300146AFF30080BDE81C407047FE
:100370000FB4044910B503AA029800F041F910BC6B
:100380005DF814FB740000200FB41CB5074B06AADF
:100390007B4469460090059800F019F900206946F1
:1003A00000F028F91CBC5DF814FB0000610200009D
:1003B0002DE9F0410E460446002020622046E16807
:1003C000884730B3252805D0D4E901219047206A19
:1003D000401CF2E7E168204600278847050018D056
:1003E000A5F14100192802D820354FF400673246A4
:1003F000294620462760FFF701FF40B1012804D0BD
:10040000F61D26F007060836D8E7361DD6E728463B
:10041000DAE7206ABDE8F0812DE9F04106460024C4
:1004200010687529314616A510D0AFF3008000285A
:1004300002DA404213A507E031688A0701D512A508
:1004400002E0490704D511A5012401E0AFF30080C3
:1004500000210A2206F1240709E0B0FBF2FCB0FB00
:10046000F2F302FB1C00303078541846491C002877
:10047000F3D123462A463046BDE8F04100F049B8A2
:10048000000000002D0000002B00000020000000F4
:1004900030B44FF0013C50F8042B51F8043BCCFA37
:1004A00052F4D51A20D1FCB950F8042B51F8043B72
:1004B000CCFA52F4D51A17D1B4B950F8042B51F82C
:1004C000043BCCFA52F4D51A0ED16CB950F8042B77
:1004D00051F8043BCCFA52F4D51A05D1002CDAD0ED
:1004E00030BC4FF00000704729BAB1FA81F111F029
:1004F0001801D1F120008440F2D1CA40CB4012F063
:10050000FF0213F0FF0330BCD01A704770477047EA
:1005100070472DE9F0470D4699469246044600F192
:1005200024080168880604D5E06921F010012160E3
:1005300000E00120A84201DD471B00E00027A1697F
:100540007A1902EB0900081AA0612078C00602D4CB
:100550002046AFF30080002608E0D4E901211AF814
:1005600006009047206A401C761C20624E45F4DB52
:100570002078C0060AD52046AFF3008006E0D4E913
:10058000012130209047206A401C2062381EA7F1CC
:100590000107F4DC07E0D4E9012118F805009047D1
:1005A000206A401C2062281EA5F10105F3DC2046CC
:1005B000AFF300802078000602D50220BDE8F08766
:1005C0000120FBE701694A1C02610878704700B509
:1005D0008FB0CDE901310021059105497944CDE97C
:1005E000031011466846FFF7E3FE0FB000BD0000A0
:1005F000E5FFFFFF0A6802F8010B0A607047000080
:10060000074B70B50D467B44FFF7E1FF04462846D3
:1006100000F008F810B14FF0FF3070BD204670BDFB
:1006200067330000007B00F08000704710B542483F
:10063000542100F0B5F94148542100F0B1F9404887
:10064000542100F0ADF93F493B483C4A3F4B08601C
:100650003D490A603A491960531C0365481C1065FE
:10066000012008653B48344A39A1784400F0EAF893
:1006700020B9384878440A3800F08BF937482F4AB7
:1006800035A1784400F0DEF820B9344878440A38BF
:1006900000F07FF932482A4A2FA1784400F0D2F8BE
:1006A00020B92F4878440A3800F073F940232248D3
:1006B000DC000021224600F0A1F820B12548784452
:1006C000543800F066F91D4822464023002100F00E
:1006D00095F820B121487844543800F05AF9184868
:1006E00022461023002100F089F8002806D01C487B
:1006F0007844BDE81040563800F04BB910BD1048A2
:1007000070B5006D20F001040B4800F013F90B48A0
:1007100000F010F90A4800F00DF909E0206D20F012
:100720000105204600F006F9204600F040F82C466E
:10073000002CF3D170BD00002000002074000020C8
:10074000C800002000000020040000200800002055
:10075000720000004C370000770000003B370000BB
:1007600014370000754600F043F9AE4605006946AF
:10077000534620F00700854618B020B5FFF76EFD00
:10078000BDE820404FF000064FF000074FF0000892
:100790004FF0000BAC46ACE8C009ACE8C009ACE8CF
:1007A000C009ACE8C00921F007018D46704770B55B
:1007B0000446051F00F020F90068002C14BF4468AF
:1007C00070BD002C18BFAC423CBF20466468F8D313
:1007D00001680A18AA4218BF456003D12A68054675
:1007E0001144016028684119A1421CBF6C6070BDB2
:1007F0006168696021680844286070BD70B5C4688C
:10080000A50713D0650211D4B2F5807F09D0B2F5E7
:10081000007F06D0B2F5806F08D1012300F12401DA
:1008200006E05D1E6FF07F46B54201D3012070BD2A
:100830000161C361416024F470611143C160002013
:1008400070BD00002DE9F0410C461646070047D068
:10085000104600F06FF82078611C61280AD07228D9
:1008600002D077283CD102E00125002405E00225D2
:10087000042402E0082448F2020511F8010B2B2899
:1008800006D0622809D011F8010C74280AD00BE0B8
:1008900045F0030544F00204EFE745F0040544F099
:1008A0000104EAE744F010043846214602F064FEF1
:1008B000411C15D00021316171604FF40071F56069
:1008C000F1617061200704D530460222002100F05A
:1008D0000DF9306D40F0010030653046BDE8F08123
:1008E0000020FBE72DE9F0410D460646104C206D37
:1008F000C10704D0410804D020F00104F7E72246E4
:100900000EE0542000F0C3F807000ED0206D47F031
:100910000101084354212065384600F041F83A4669
:1009200029463046BDE8F0418CE70020D6E70000BC
:10093000200000202DE9F04704464FF0FF38002644
:10094000C568D4E90497A80718D0204600F08AF9B2
:10095000384602F0FDFD002800DA4646280502D59B
:100960004846FFF724FF4C21204600F019F8206D7F
:1009700020F0010020653046BDE8F0874046FBE7E7
:1009800010B50446AFF300802046BDE81040FFF7E5
:1009900051BC10B500F0B0F9BDE8104000F0A6B9A8
:1009A0004FF0000200B5134694469646203922BF08
:1009B000A0E80C50A0E80C50B1F12001BFF4F7AF53
:1009C000090728BFA0E80C5048BF0CC05DF804EB35
:1009D000890028BF40F8042B08BF704748BF20F8A3
:1009E000022B11F0804F18BF00F8012B7047000058
:1009F000004870471C010020004870472401002077
:100A0000704770477047704738B504460A46002063
:100A10006946AFF30080002808BF38BD0246009940
:100A2000204600F090F9012038BD012000F0DFB928
:100A3000F8B5AFF30080054600200C46102000BF3B
:100A40000646A819A0420DD9324669460020AFF3E8
:100A50000080070008BF00F0CAF90098A04218BF44
:100A60000546C419FFF7C8FF05600746F01D20F0D2
:100A700007004619284600F05FF9B44208BFF8BDE8
:100A8000A21B31463868BDE8F84000F05CB970B58B
:100A90000646FFF7B1FF056806F10B0020F00704DA
:100AA000B4429CBF002070BD2B466A68BAB1106882
:100AB000A04210D304F1080188423CBF506858603E
:100AC00007D35168101941601168091B0160586013
:100AD0001460101D70BD13465268002AE7D12146EC
:100AE0002846FFF791FF0028DED170BD2DE9F041C7
:100AF000044616460D464769007B80072ED03846CF
:100B000002F032FD50BB3EB3012E02D0022E25D1A1
:100B100004E0204600F031F905441DE0384602F0BB
:100B200021FDE168002841F01001E16005DA20466E
:100B300000F058F80120BDE8F081C9030BD56268C8
:100B4000E16A914200D81146A26911442269891ACA
:100B5000814200DD08460544002D01DA0220EAE763
:100B6000E16A6068E268814206D29103E06203D5DF
:100B700022F4003141F01002A6690027AE4213DCD6
:100B8000E16A814201D90B4600E0034603EB060C03
:100B90002369ACEB030CAC4506DD814201D98C46E0
:100BA00000E084469C4505D1A760276042F0200004
:100BB000A5620DE0AD1BE669AE1B8142A66000D9BF
:100BC0000846C01A281A20605819606022F02000D8
:100BD00003490840E060002084F84870ABE700005B
:100BE000BFCFD7FFC16821F4001141F08001C1607F
:100BF00000218160016070472DE9F74F15460C46D2
:100C00004FF0FF3B3848D768D2F814A0074209D00C
:100C10005046A96902F0E2FC002819DB3248C043C3
:100C20000740EF604FF000496FF000484C4501D39A
:100C3000464600E0264600993B465046324602F0C2
:100C4000D1FCA96920F00042B21A1144A96128B16F
:100C50002846FFF7C7FF5846BDE8FE8FA41BE5D125
:100C60000020F9E770B504460569C06A61688842EA
:100C700000D80846E16821F42011E160C90312D5CB
:100C8000A84208D02246411B2846FFF7B5FF10B105
:100C90004FF0FF3070BD0020E562C4E90150E0680C
:100CA00020F48030E060002070BD10B50446C068BC
:100CB00020F02000E060A16AA06988420DD02046A3
:100CC000FFF7D0FFE06820F4405040F01000E060F3
:100CD000A06AA0612069E062606044F24001E068BF
:100CE0008843E06010BD000010000200002801D021
:100CF00000F01CB87047000010B5014602A000F0DB
:100D00005DF8012010BD000053494752545245443C
:100D10003A2052656469726563743A2063616E2794
:100D200074206F70656E3A200000000001491820A1
:100D3000ABBEFEE72600020000210160C0E9011001
:100D4000704710207047034640688C46002818BF43
:100D500088423CBF03464068F8D31868184488426C
:100D600007D00CF1030020F00700001D411A521AB1
:100D70000146081D0A60FFF71ABD10B50146C2689A
:100D8000900703D0900607D5886A0AE000F03EF885
:100D900001210160881E10BD8B69486818440B69E9
:100DA000C01A91F848301BB191F84910401A10BD93
:100DB0001103FCD50028FADD401E10BD70B50546B4
:100DC0000C460A2000E06D1C00F018F835B12878B8
:100DD0000028F8D102E0641C00F010F814B120786B
:100DE0000028F8D1BDE870400A2000F007B810B51F
:100DF00000F010F8BDE81040FFF778BF08B569466D
:100E00008DF800000320ABBE08BD70470048704756
:100E10001C01002010B5012805D0002103A0FFF718
:100E2000CDFF012010BD09A1F8E70000534947524A
:100E3000544D454D3A204F7574206F6620686561AA
:100E400070206D656D6F7279000000003A20486572
:100E50006170206D656D6F727920636F727275704D
:100E600074656400FEE7000070470000EFF3108037
:100E700072B600BFFEE70000B0B5044600F0E4F82B
:100E8000054640F20C00C2F200000078611C18BF59
:100E9000044400BF00F0D8F8401BA042FAD3B0BD14
:100EA0002DE9F04F82B000F13E4241F6004502F1DB
:100EB000FF77C4F20205082243F6004E4FEAB72638
:100EC000A84208BF0722C4F2010E072E38BF4FEA1E
:100ED000B7220125002600274FF00008009208E005
:100EE00008F101080437B8F1100F06F1020600F00E
:100EF000A7800C6805FA08F914EA090FF0D0D1F8B8
:100F000004B003220BF0030CACF10104B240012C3D
:100F10006FEA020A10D88268CC6802EA0A02B4407A
:100F2000224382604268CBF3001422EA090204FAE9
:100F300008F42243426005E0BCF1030F02D14FF0F8
:100F4000030C20E0C2688C6802EA0A02B440224323
:100F5000BCF1020FC26016D16FF0030202EA580220
:100F60000244D2F820C007F01C050F230C69AB40E7
:100F70002CEA030304FA05F52B431362D1F804B0FD
:100F800001250BF0030C02680CFA06F302EA0A02D0
:100F90001A431BF4403F0260A2D0002243F64403F0
:100FA0000192C4F202031A684FF6084C42F48042E0
:100FB0001A601A68CFF6FF7C02F480420192019A0F
:100FC00028F00302724452F80C3007F00C050F248D
:100FD000AC40A343009C04FA05F52B4342F80C30C7
:100FE000DEF808204B6842EA090543F60C4CDC02A7
:100FF00058BF22EA0905CEF80850C4F2010CDCF80B
:1010000000209C0242EA090558BF22EA0905CCF8F3
:101010000050DEF804209C0342EA090558BF22EA8A
:101020000905CEF80450DEF80020DB0342EA09058A
:1010300058BF22EA0905CEF80050012550E700BF4D
:1010400002B0BDE8F08F000040F22830C2F200008C
:101050000068704770B5B8B3044690F83D0028B9F1
:10106000002084F83C00204600F0ECFA242084F8AC
:101070003D002068016821F001010160016841F430
:1010800000410160016821F40041016000F0B0FC02
:1010900048F28041C0F21E0140F60013D4F804E08B
:1010A00088424FF00001C0F23D0348F2A16C4FF0BE
:1010B000000238BF01219842C0F2010C38BF012262
:1010C000E64538BF0A460AB1012070BD4DF683617E
:1010D000C4F21B31A0FB01122168950C4B684FF440
:1010E000967623F03F0343EA9243754344F6D35682
:1010F0004B60C1F262060B6AA5FB0656B50923F0E8
:101100003F03E64538BF950C6A1C1A430A62CA6958
:1011100048F2A0664CF6FF73C0F20106B64522EA1B
:1011200003020BD801384FEA4E03B0FBF3F0013055
:101130006FF31F30042898BF04201EE0A368013815
:1011400063B119230EFB03F3B0FBF3F001306FF32F
:101150001F3078B100F5804008E000BF0EEB4E0371
:10116000B0FBF3F001306FF31F3028B100F5004001
:1011700003E000BF012000E001201043C8610868BF
:10118000D4E9072320F0C0001043184308608868A2
:1011900048F2FF3204F10C0690434CCE1843104342
:1011A000A5698860C86820F0FF0030432843C86004
:1011B000086840F00100086000202021206484F8C5
:1011C0003D10206384F83E0070BD00002DE9F0431F
:1011D00081B01F46164688460446FFF735FF94F84F
:1011E0003D10202920D1054620688169890717D53F
:1011F000FFF72AFF401B1928F6D900202021206381
:1012000084F83D1084F83E00216C022641F0200154
:10121000216484F83C00304601B0BDE8F08300BF93
:1012200094F83C10012905D10226304601B0BDE8F2
:10123000F08300BF012184F83C100168C90703D185
:10124000016841F001010160016821F40061016061
:10125000212184F83D10102184F83E1000212164E2
:1012600066626785618D21850021CFF6FF71E1629D
:10127000E16A11F5803F18BF012919D1016841F4D5
:10128000807101604169DDF82090C90723D119F10F
:10129000010116D0B9F1000F46D000BFFFF7D4FE10
:1012A000401B484542D820684169C907F6D012E082
:1012B0000829E3D0216B1229E0D0E3E74169C9078F
:1012C00009D14169C90706D14169C90704BF41690C
:1012D0005FEAC171F2D02169B1F5804F02D1FE21E0
:1012E00061E000BF062101EAD811F03101614169D6
:1012F000090757D4416919F1010201F480612FD027
:10130000002946D1B9F1000F00F04281FFF79CFEA1
:10131000401B484500F23E8120684169090741D4DD
:1013200041694905F2D534E0FFF78EFE0020202107
:10133000206384F83D1084F83E00216C012641F0C2
:1013400020012164216884F83C000868C00544BF7E
:101350004FF400702064304601B0BDE8F08300BF58
:10136000B9B9416909071DD44169490511D44169D9
:10137000090717D4416949050BD44169090711D4FC
:101380004169490505D4416909070BD441694905FB
:10139000E7D5016841F4007101606FF4806141613B
:1013A0000420F8E0FF2101EA080101614169890791
:1013B0003AD4416919F1010201F4806112D051BBA4
:1013C000B9F1000F00F0E080FFF73EFE401B4845FA
:1013D00000F2DC8020684169890725D4416949050C
:1013E000F2D518E0B9B9416989071DD441694905A9
:1013F00011D44169890717D4416949050BD4416962
:10140000890711D44169490505D4416989070BD47D
:1014100041694905E7D5016841F4007101606FF445
:10142000806141610420B6E0002600964169009188
:10143000816900910099218D002900F0958009F1C2
:101440000108014651F8142F120635D4B8F1000FE7
:1014500016D0B9F1000F00F0AF8000BF086840055A
:1014600000F1B280FFF7F0FD401B484500F2A98073
:101470002068014651F8142F1206EFD51CE000BF7A
:101480000A68520500F1A0800A68120614D40A689E
:10149000520500F199800A6812060DD40A685205B7
:1014A00000F192800A68120606D40A68520500F11B
:1014B0008B800A681206E3D5636A194611F8012B7E
:1014C00002616162618D01396185278D0146A7F155
:1014D000010CA4F828C051F8142F52070DD55FEA6B
:1014E0000C420AD05A78A7F1020C02619A1C62627F
:1014F000628D013A6285A4F828C00A6852072FD489
:10150000B8F1000F14D0B9F1000F7BD00868400586
:1015100000F18080FFF798FD401B484577D8206890
:10152000014651F8142F5207F0D5B4F828C017E03F
:101530000A6852056ED40A68520711D40A68520527
:1015400068D40A6852070BD40A68520562D40A6844
:10155000520705D40A6852055CD40A685207E7D5D9
:101560005FEA0C417FF46DAF016841F400710160E6
:10157000202084F83D0084F83E6084F83C603046CA
:1015800001B0BDE8F08300BFFFF75EFD202002E060
:10159000FFF75AFD202000212022216384F83D20FE
:1015A00084F83E10226C01261043206484F83C101D
:1015B000304601B0BDE8F0830868400504D4FFF769
:1015C00043FD202004E000BF6FF480600860042029
:1015D00000212022216384F83D2084F83E10226CF3
:1015E0001043206484F83C10206C042825D1206826
:1015F0000126016841F400710160304601B0BDE888
:10160000F08300BF0868400504D4FFF71DFD2020CB
:1016100004E000BF6FF480600860042000212022F5
:10162000216384F83D2084F83E10226C104320642E
:1016300084F83C10206C0428D9D00126304601B033
:10164000BDE8F083B0B586B0006845F60001C4F28D
:10165000000100248842CDE90444CDE9024401940C
:1016600030D045F20041C4F20001884253D1002439
:1016700043F630050094C4F20205286801A940F041
:1016800002002860286800F0020000900098C02046
:1016900001901220CDE9020403200490042005905B
:1016A00040F20040C4F20200FFF7FAFB0094286900
:1016B00040F400102861286900F4001000900098A0
:1016C00006B0B0BD43F630050094C4F202052868A8
:1016D00001A940F002002860286800F00200009094
:1016E00000984FF4406001901220CDE902040320DD
:1016F00004900420059040F20040C4F20200FFF77D
:10170000CFFB0094286940F480002861286900F428
:1017100080000090009806B0B0BD000040F20C00C0
:1017200040F22831C2F20000C2F2000100780A68DB
:10173000104408607047000080B543F60040C4F2D2
:101740000200016841F400710160016841F48061A8
:101750000160016841F480710160032000F088F8A5
:101760000F2000F005F800F027F8002080BD0000F1
:1017700070B540F20C06C2F2000640F21401327855
:10178000C2F200014FF47A730968B3FBF2F2044627
:10179000B1FBF2F1084600F043FB0F2C4FF00105BE
:1017A00008D838B94FF0FF3021460022002500F05C
:1017B00033F87460284670BD82B0002043F64001C3
:1017C0000190C4F202014A6842F480424A604A68C9
:1017D00002F480420192019A0090086840F0805023
:1017E0000860086800F080500090009802B07047D0
:1017F000002848BF7047C1B200F01F00012202FA62
:1018000000F04EF20012CEF2000242EAD10121F0C5
:10181000030108607047000010B54EF60C5CCEF274
:10182000000CDCF80030C3F3022E8EF00704042C09
:1018300028BF0424BEF103034FF0FF3E0EFA04F468
:1018400038BF0023A14399400EFA03F39A43114392
:1018500000F00F0200F160430901043A03F564430C
:101860006244002848BF02F10C03197010BD00004B
:101870004EF60C51CEF200010A684FF6FF031A40F3
:1018800060F30A2242F0806040F0FD70086070470B
:101890002DE9F041002800F08B8043F60808C4F2DF
:1018A00002080446D8F8F8030D4600F00700884205
:1018B00007D288F8F853D8F8F80300F00700A842D8
:1018C00076D12068810717D5410705D5D8F80010D3
:1018D00041F4E051C8F80010010705D5D8F8001010
:1018E00041F46041C8F80010D8F80010A26821F057
:1018F000F0011143C8F80010C0073FD1D8F8F80331
:1019000000F00700A84207D988F8F853D8F8F80380
:1019100000F00700A8424BD12068410707D5D8F84E
:101920000010E26821F4E0511143C8F800100007EC
:1019300008D5D8F80000216920F4604040EAC100D1
:10194000C8F8000000F07CF8D8F8001043F69A526E
:10195000C1F30311C0F60002515C40F2140220FAF8
:1019600001F140F21000C2F200000068C2F2000271
:101970001160FFF7FDFE0020BDE8F0816068811E68
:10198000022907D258F8081C89015CBF0120BDE874
:10199000F08111E0012807D158F8081C89035CBFC9
:1019A0000120BDE8F08107E058F8081C890703D43E
:1019B0000120BDE8F08100BFD8F8001021F003013C
:1019C0000843C8F80000FFF73FFB064641F288379E
:1019D000D8F80000616800F00C00B0EB810F8DD0EA
:1019E000FFF732FB801BB842F2D90320BDE8F0813B
:1019F00040F2140043F60801C2F20000C4F20201F2
:101A00000068096843F6AA52C1F38221C0F60002B9
:101A1000515CC8407047000040F2140043F60801D2
:101A2000C2F20000C4F202010068096843F6AA523B
:101A3000C1F34231C0F60002515CC840704700005B
:101A400010B543F60404C4F20204606800F00C010F
:101A500042F200400829C0F2F40007D0042918BF60
:101A600010BD41F20020C0F27A0010BD216801F0E3
:101A70003F02216823684902C3F3881106D4A1FB01
:101A800000010023FEF7FCFB07E000BF41F200204D
:101A9000C0F27A004843B0FBF2F021680222C1F3A1
:101AA000014102EB4101B0FBF1F010BD2DE9F04125
:101AB00082B0002868D00446007843F60006C007CC
:101AC000C4F202060BD0B06800F00C00042840F00D
:101AD0009F803068800302D56068002854D0207849
:101AE00080071AD5B06810F00C0F09D0B06800F06C
:101AF0000C00082840F0A6807068400200F1A28027
:101B00003068800702D5E06801283DD1306821693E
:101B100020F0F80040EAC10030602078000737D498
:101B2000207840074CD4A56955B3B06800F00C008C
:101B3000082840F0BB80012D26D07068E16900F4D0
:101B400080028A4220D1216A00F03F028A421BD1E2
:101B500047F6C071626A0140B1EB821F14D1A16ADD
:101B60004FF6FF73C903994300F44032A1F5803169
:101B70008A4209D1E16A00F07060B0EB016F03D1D5
:101B8000002002B0BDE8F081012002B0BDE8F08184
:101B90006069002840F20000C4F2472076D001219D
:101BA000C0F8801EFFF750FA054600BF706F80072F
:101BB000B6D4FFF749FA401B0228F7D9DDE000BF91
:101BC000306C10F080580AD100200190306C40F049
:101BD00080503064306C00F080500190019847F2E2
:101BE0000007C4F200073868C00541D4386840F4E3
:101BF00080703860FFF728FA054600BF3868C005D6
:101C000036D4FFF721FA401B0228F7D9B5E000BF10
:101C1000B06800F00C00082803D1706840023FF55E
:101C200058AF6068B0F5803F07D0B0F5A02F40F006
:101C30008D80306840F480203060306840F480301F
:101C400030608DE0E068002852D00020C4F24720C8
:101C500001210160FFF7F8F9054600BF30688007F1
:101C60003FF554AFFFF7F0F9401B0228F6D984E0A6
:101C7000A068012805D005284ED1306F40F004003F
:101C80003067306F40F0010030674FE00021C0F84E
:101C9000801EFFF7D9F90546706F80077FF540AFCA
:101CA000FFF7D2F9401B0228F6D966E00027C4F2FC
:101CB000472700203866FFF7C7F9022D05460BD1EC
:101CC000306880015ED5FFF7BFF9401B02284FF056
:101CD0000300F5D955E700BF306880017FF550AFAC
:101CE000FFF7B2F9401B02284FF00300F4D948E790
:101CF0000020C4F2472000210160FFF7A5F9054646
:101D0000306880077FF509AFFFF79EF9401B022876
:101D10004FF00300F4D934E7316F002821F00101BE
:101D20003167316F21F0040131674DD0FFF78CF935
:101D3000054641F2883700BF306F800756D4FFF761
:101D400083F9401BB842F7D917E000BF316800287B
:101D500021F480313160316821F4802131604FD02D
:101D6000FFF772F9054600BF306880033FF5B7AE54
:101D7000FFF76AF9401B6428F6D9032002B0BDE8DA
:101D8000F08100BF04F11C052FCD084340EA82100A
:101D9000D9034FF6FF729143A1F5803140EA056007
:101DA0000843706001203866FFF74EF9044600BF13
:101DB000306880013FF5E4AEFFF746F9001B0228CA
:101DC0004FF00300F4D9DCE6FFF73EF9054641F297
:101DD000883700BF306F800708D5FFF735F9401B03
:101DE000B8424FF00300F5D9CBE600BFB8F1000FC1
:101DF0007FF499AE306C20F08050306493E600BFE1
:101E0000FFF722F9054600BF306880037FF567AE13
:101E1000FFF71AF9401B64284FF00300F4D9B0E62D
:101E2000411E0020B0EB116F1CBF012070474EF225
:101E30001002CEF2000251604EF62351CEF20001A4
:101E4000F0230B700721906011607047704700000D
:101E500070470000B0B590F83C20012A04BF022072
:101E6000B0BD01F108053CCDD1E900CE23F47C538F
:101E700022F470521A432EF4F0431A432CF4E04338
:101E80001A4324F4C0431A432A43C96922F4804206
:101E9000036811435964002180F83C100846B0BD26
:101EA00010B590F83C20012A4FF0020251D080F882
:101EB0003D200268D2F804E0D2F808C00C682EF089
:101EC0007003234341F2FF74C4F20004A242536042
:101ED0000EDC40F2FF73C4F200039A4216DCB2F14A
:101EE000804F2BD040F20043C4F2000324E000BF37
:101EF00040F2FF33C4F201039A4213DC41F60003BF
:101F0000C4F200039A4219D0002313E040F6000304
:101F1000C4F200039A4211D040F60043C4F2000319
:101F20000AE000BF44F20003C4F201039A4205D064
:101F300040F20043C4F201039A4204D149682CF0F4
:101F40008003194391600121002280F83D1080F840
:101F50003C20104610BD0000002804BF012070473F
:101F600010B5044690F83D0028B9002084F83C00E4
:101F7000204600F01FF8022084F83D002068211D53
:101F800001F0CEF9012084F8460084F83E0084F880
:101F90003F0084F8400084F8410084F8420084F84F
:101FA000430084F8440084F8450084F83D00002094
:101FB00010BD000080B582B00068B0F1804F15D030
:101FC0000021C4F2010188420ED10020019043F6A5
:101FD0004000C4F20200416841F0010141604068E4
:101FE00000F001000190019802B080BD0020009037
:101FF00043F64000C4F202000168002241F00101F2
:1020000001600068002100F00100009000981C2091
:10201000FFF702FC1C2002B0BDE88040FFF7E8BBE0
:1020200080B590F83C20012A4FF0020200F0C280F7
:1020300080F83D20D0F800C04FF67772DCF8083009
:1020400023EA0202CCF808200B684F2B28DC1F2B58
:1020500044DD202B45D0302B43D0402B40F0AC80CA
:10206000D1F804E0C968DCF82030DCF8202022F048
:102070000102CCF82020DCF8182022F0F00242EA1D
:10208000011123F00A0242EA0E02CCF81810CCF833
:102090002020DCF8081041F0470121F0300180E0F9
:1020A0006F2B27DDB3F5005F48D0B3F5805F7AD0A2
:1020B000702B40F08180D1E901E3C968DCF8082089
:1020C00043EA0E0322F47F4243EA01211143CCF894
:1020D0000810DCF8081041F0770162E00BB1102B1A
:1020E0006AD1DCF8081021F07001194341F00701B2
:1020F00057E000BF502B35D0602B5DD1D1F804E004
:10210000C968DCF8203023F01003CCF82030DCF86C
:102110001830DCF8202023F4704322F0A00243EAB8
:10212000013142EA0E12CCF81810CCF82020DCF86D
:10213000081041F0670121F0100132E0D1E901E31C
:10214000C968DCF8082043EA0E0322F47F4243EA20
:1021500001211143CCF80810DCF8081041F480414B
:102160001FE000BFD1F804E0C968DCF82030DCF8DB
:10217000202022F00102CCF82020DCF8182022F0E8
:10218000F00242EA011123F00A0242EA0E02CCF800
:102190001810CCF82020DCF8081041F0570121F08D
:1021A0002001CCF808100022012180F83D10002108
:1021B00080F83C10104680BD0122F5E77047000012
:1021C00010B5016804460869800744BFC8685FEA23
:1021D000807039D40869400744BFC8685FEA40701E
:1021E0003ED40869000744BFC8685FEA007045D460
:1021F0000869C00644BFC8685FEAC0604AD408697D
:10220000C0071CBFC8685FEAC07051D108690006EA
:1022100044BFC8685FEA006052D40869400644BF02
:10222000C8685FEA406053D40869800646BFC86842
:102230005FEA806010BD6FF0200220460A61BDE8B1
:102240001040FFF705BE00BF6FF0020008610120DB
:1022500020778869800743D02046FFF7AFFF45E02D
:102260006FF00400086102202077886910F4407F35
:1022700040D02046FFF7A2FF42E000BF6FF0080009
:10228000086104202077C86980073DD02046FFF709
:1022900095FF3FE06FF01000086108202077C869C3
:1022A00010F4407F3AD02046FFF788FF3CE000BFA3
:1022B0006FF001000861204600F016FC2168A5E7D8
:1022C0006FF0800008612046FFF7C0FD2168A4E799
:1022D0006FF040000861204600F008FC2168A3E789
:1022E000204600F0FFF8204600F072FB2168002035
:1022F00020776FE7204600F0F5F8204600F068FBF5
:102300002168002020776CE7204600F0EBF820469B
:1023100000F05EFB21680020207769E7204600F08E
:10232000E1F8204600F054FB21680020207766E7A2
:10233000F0B590F83C30012B04BF0220F0BD4FEA0D
:10234000B202032A00F2C880DFE802F00234689A81
:10235000026840F20046136A42F4806423F00103ED
:102360001362136AD2F804E0D2F818C08D6823F023
:102370000203C4F20106B44243EA050305D1CD6865
:1023800023F00C0325F004052B430D68B44207D15C
:10239000D1E905462EF4407E44EA0E0444EA060ED6
:1023A0002CF073062E43C2F804E09661496851632D
:1023B0008BE000BF026840F20045136A42F480647B
:1023C00023F010031362136AD2F804E0D2F818C0A5
:1023D0008E6823F02003C4F20105AC4243EA0613E1
:1023E00007D1CE686FF0400723F0C00307EA061656
:1023F00033430E68AC4206D1D1E905452EF440675F
:10240000254347EA850E2CF4E64747EA0627C2F83B
:1024100004E097614968916357E000BF026840F2A9
:102420000045136A42F4806423F480731362136AD4
:10243000D2F804E0D2F81CC08E6823F40073C4F212
:102440000105AC4243EA062307D1CE6840F2FF47BC
:10245000360223F44063BE4333430E68AC4206D1D8
:10246000D1E905452EF44057254347EA051E2CF0D7
:1024700073073743C2F804E0D7614968D16324E0A9
:10248000026840F20047136A42F4806623F48053E6
:102490001362D2F820E05368D4690D68D1F808C0FF
:1024A000C4F20107BE4204D14E6923F4804343EADB
:1024B000861324F4E64646EA05265360D6612EF4D8
:1024C0000057496847EA0C33116400211362002267
:1024D00080F83C200846F0BD0121002280F83C2015
:1024E0000846F0BD007F022824D0012831D140F2F7
:1024F0007C10C2F20000C16A4A1C0188322AC26202
:1025000008BF002926D0322A08BF012934D140F261
:102510001802C2F2000211884FF0000CC8398BB2C9
:102520001180FA2BC0F82CC09EBFFA211180A0F8B0
:1025300000C026E040F27C10C2F20000816A013146
:102540003229816218BF7047C26900218162511C23
:10255000C161704740F21801C2F200010A88C83216
:1025600093B20A800022B3F5966FC26204D34FF48F
:1025700096620A800121018040F21800C2F2000038
:10258000018840F25420C2F20000006889B2416321
:1025900070470000002804BF0120704710B50446B2
:1025A00090F83D0028B9002084F83C00204600F057
:1025B0001FF8022084F83D002068211D00F0B0FEC5
:1025C000012084F8460084F83E0084F83F0084F837
:1025D000400084F8410084F8420084F8430084F805
:1025E000440084F8450084F83D00002010BD000040
:1025F0007047000041B1082916D0042914BF00F12A
:10260000410200F13F0211E090F83E20012A1CBF78
:1026100001207047022280F83E204FEAB103032BCD
:102620004FF0010216D81FE000F140021278012A93
:102630001CBF01207047022208290DD0042914BFB5
:1026400080F8412080F83F204FEAB103032B4FF080
:10265000010209D91046704780F840204FEAB103C3
:10266000032B4FF00102F5D843F6CC5C0068C0F6AE
:10267000000C5CF823C0C36801F01F0143EA0C039F
:10268000C360036A02FA01F123EA01020262026AEC
:10269000114341F2FF72C4F20002904201620FDC6A
:1026A00040F2FF71C4F2000188421BDCB0F1804FA0
:1026B0003ED040F20041C4F20001884238D03FE0F1
:1026C00040F2FF31C4F20101884219DC41F60001F9
:1026D000C4F2000188422BD00021C4F201018842DB
:1026E0001AD02DE040F60001C4F2000188421FD04C
:1026F00040F60041C4F20001884219D020E000BF3A
:1027000044F20001C4F20101884211D040F20041BC
:10271000C4F20101884213D1416C40F2004340F4FD
:102720008062C4F2010341F400419A42416407D13E
:10273000816801F00701062902D100221046704786
:10274000016841F001010160002070472DE9F0436C
:1027500090F83C30012B04BF0220BDE8F0834FEA23
:10276000B202032A00F2FC80DFE802F0023E7EBEE5
:10277000036840F200471A6A43F4806522F00102C0
:102780001A621C6A1A46D3F804E052F818CF8E6811
:1027900024F00204C4F20107BD4244EA060405D154
:1027A000CE6824F00C0426F0040634430E68BD42C3
:1027B00007D1D1E905572EF4407E45EA0E0545EADA
:1027C000070E2CF073073743C3F804E09F614F688E
:1027D00009695F631C629F6947F008079F619F69F1
:1027E00027F004079F61B1E0036840F200481A6ACD
:1027F00043F4806522F010021A621C6A1A46D3F86C
:1028000004C052F818EF8F6824F02004C4F20108C5
:10281000454544EA071407D1CF686FF0400624F01D
:10282000C00406EA07163443D1F80090454506D1A6
:10283000D1E905562CF440672E4347EA860C2EF466
:10284000E64747EA0927C3F804C09F614F68096952
:102850009F631C629F6947F400679F619F6927F42B
:1028600080679F6171E000BF036840F200481A6A08
:1028700043F4806522F480721A621C6A1A46D3F807
:1028800004C052F81CEF8F6824F40074C4F20108ED
:10289000454544EA072408D1CF6840F2FF463F028D
:1028A00024F4406427EA06063443D1F800904545F5
:1028B00006D1D1E905562CF440572E4347EA061CB1
:1028C0002EF0730747EA0907C3F804C0DF614F68B9
:1028D0000969DF631C62DF6947F00807DF61DF69B0
:1028E00027F00407DF6131E0036840F200451A6A0F
:1028F00043F4806722F480521A621A46D3F820C04B
:102900005C6852F81CEFD1F800808E68C4F20105B3
:10291000AF4204D14D6924F4804444EA85142CF478
:10292000005747EA06372EF4E64646EA08265C607A
:10293000DE614E6809691E641F62DF6947F4006743
:10294000DF61DF6927F48067DF61090213681943DB
:1029500011600021002280F83C200846BDE8F08389
:102960000121002280F83C200846BDE8F0830000E9
:10297000002804BF0120704710B5044690F83D00C0
:1029800028B9002084F83C00204600F01FF80220FF
:1029900084F83D002068211D00F0C2FC012084F86D
:1029A000460084F83E0084F83F0084F8400084F834
:1029B000410084F8420084F8430084F8440084F81D
:1029C000450084F83D00002010BD00007047000065
:1029D0007047000041B1082910D0042914BF00F14C
:1029E000410200F13F020BE090F83E20012A1CBF9B
:1029F00001207047022280F83E2013E000F14002DF
:102A00001278012A1CBF012070470222082907D032
:102A1000042914BF80F8412080F83F2002E000BF65
:102A200080F84020006801F01F010122036A02FAC9
:102A300001F123EA01020262026A114341F2FF72CC
:102A4000C4F20002904201620CDC40F2FF71C4F259
:102A50000001884214DCB0F1804F37D040F20041D1
:102A600016E000BF40F2FF31C4F20101884215DCDC
:102A700041F60001C4F20001884227D0002115E090
:102A800040F60001C4F2000188421FD040F6004128
:102A9000C4F20001884219D01FE000BF44F20001D7
:102AA000C4F20101884211D040F20041C4F2010198
:102AB000884212D1416C40F2004340F48062C4F27B
:102AC000010341F400419A42416406D1816801F05A
:102AD0000701062904BF00207047016841F0010189
:102AE0000160002070470000704700007047000040
:102AF000002804BF0120704710B5044690F83D003F
:102B000028B9002084F83C00204600F021F8242059
:102B100084F83D002068C16821F40051C16020465E
:102B200000F09CFC2068016921F490410161416939
:102B300021F02A014161C16841F40051C1600020C7
:102B40002021206484F83D1084F83E1010BD000060
:102B500080B586B0016844F20040C4F200008142B2
:102B600002D006B080BD00BF002143F630020191C3
:102B7000C4F20202136900F5DE3043F4003313613E
:102B8000136903F400330193019B0191136843F02F
:102B900001031360126802F001020192019A0C22F3
:102BA00001920222CDE9022103210491072105911E
:102BB00001A9FEF775F906B080BD00002DE9F043CC
:102BC00081B0044690F83D0020280DD10F46002921
:102BD0004FF0010000F0DD801646002A00F0D98099
:102BE00094F83C00012803D1022001B0BDE8F08335
:102BF000012084F83C000020206421201D4684F838
:102C00003D00FEF721FAA684E684A1680646B1F5E8
:102C1000805F03D12069002800F01081B8460027AA
:102C2000002084F83C00E18C2068002900F09080AE
:102C300005F101090DE000BFB8F1000F28D018F828
:102C4000011B4160E18C0139E184E18C002900F035
:102C50007F8001680906EFD4B9F1000F0AD0FDB1F9
:102C6000FEF7F2F9801BA8421AD82068016809060D
:102C7000F6D5E1E701680906DED4016809065CBF04
:102C800001685FEA0161D7D401680906F2D5D3E78C
:102C900037F8021B4FF000086FF35F21D1E700BF48
:102CA000206850E8030F216820F4D07041E8030247
:102CB000BAB3206850E8030F216820F4D07041E8CF
:102CC000030272B3206850E8030F216820F4D0702B
:102CD00041E803022AB3206850E8030F216820F47A
:102CE000D07041E80302002ADAD11AE0206850E8E7
:102CF000050F216820F0010041E80502DAB12068E3
:102D000050E8050F216820F0010041E8050292B16A
:102D1000206850E8050F216820F0010041E8050215
:102D20004AB1206850E8050F216820F0010041E811
:102D30000502002ADAD1202084F83D0084F83E0004
:102D4000002084F83C00032001B0BDE8F08300BF00
:102D50000168490619D4FDB1691C0DD10168490605
:102D600013D4016849065CBF01685FEA41610CD475
:102D700001684906F2D508E0FEF766F9801BA84213
:102D80000AD8206800684006F6D5202084F83D0067
:102D9000002001B0BDE8F083206850E8030F2168EF
:102DA00020F4D07041E80302E2B3206850E8030F3A
:102DB000216820F4D07041E803029AB3206850E8FB
:102DC000030F216820F4D07041E8030252B3206859
:102DD00050E8030F216820F4D07041E80302002A74
:102DE000DAD11FE0206850E8050F216820F00100CB
:102DF00041E80502002A9ED0206850E8050F2168AE
:102E000020F0010041E80502002A3FF494AF206859
:102E100050E8050F216820F0010041E80502002A72
:102E20003FF489AF206850E8050F216820F00100C9
:102E300041E80502002AD5D17DE700BF4FF0000828
:102E4000EEE60000FEE7000081B0002043F630010E
:102E50000090C4F202010A6842F080020A600A6827
:102E600002F080020092009A00900A6842F001028B
:102E70000A600A6802F001020092009A00900A6853
:102E800042F010020A600A6802F010020092009AF2
:102E90000090086840F002000860086800F0020036
:102EA0000090009801B0704780B540F2AC1045F238
:102EB0000041C2F20000C4F2000148F2A062002307
:102EC0004FF4804CC0F2010280E80E00C0E9033CE0
:102ED000C0E90533C0E90733FEF7BCF8002808BF96
:102EE00080BDBDE88040FDF7C1BF000080B540F265
:102EF000002045F60001C2F20000C4F2000148F2D1
:102F0000A06200234FF4804CC0F2010280E80E0062
:102F1000C0E9033CC0E90533C0E90733FEF79AF87E
:102F2000002808BF80BDBDE88040FDF79FBF0000BE
:102F3000B0B59CB0002540F25420C4F20105002138
:102F4000C2F2000040F24F1242F20F731691CDE927
:102F500014111191CDE90F11CDE90D11CDE90B112E
:102F6000CDE90911CDE90711CDE90511CDE903112D
:102F7000CDE90111C0E90052C0E90213C0E9041112
:102F80008161FEF7E9FF002818BFFDF76FFF4FF4DE
:102F90008050139040F25420C2F2000013A9FFF7B2
:102FA0003FF8002818BFFDF761FF40F25420C2F23D
:102FB0000000FFF7DDFC002818BFFDF757FF40F2C7
:102FC00054200024C2F2000010A9CDE91044FEF7FD
:102FD00067FF002818BFFDF749FF6020099040F205
:102FE000E730CDE90A0440F25420C2F2000009A9FA
:102FF0000022CDE90C44CDE90E44FFF7A7FB0028E1
:1030000018BFFDF733FF40F2542400204FF4005165
:10301000C2F200040590CDE90300CDE9010006915C
:10302000089001A92046FEF715FF002818BFFDF7FC
:103030001DFF2068B0F1804F16D0A84231D100208A
:10304000179043F63000C4F20200016841F010010D
:10305000016000684FF4007100F01000179017989D
:1030600005F5883012E000BF0020179043F63000CD
:10307000C4F20200016841F0010101600068012111
:1030800000F001001790179805F580301791022184
:1030900018910021CDE9191101211B9117A9FDF704
:1030A000FFFE1CB0B0BD000010B594B040F29C20F3
:1030B0000021C2F200004FF0804240F61F5340F260
:1030C000E7340E91CDE90C110991CDE90711CDE955
:1030D0000511CDE90311CDE90111C0E90023C0E9D3
:1030E000021401618161FEF737FF002818BFFDF768
:1030F000BDFE4FF480500B9040F29C20C2F20000C5
:103100000BA9FEF78DFF002818BFFDF7AFFE40F2B8
:103110009C20C2F20000FFF73DFA002818BFFDF71F
:10312000A5FE40F29C200024C2F2000008A9CDE9CF
:103130000844FEF7B5FE002818BFFDF797FE3020C3
:10314000CDE9010440F29C20C2F2000001A9002256
:1031500003940594FFF7ECF8002818BFFDF786FEEE
:1031600040F29C240020C2F20004019001A92046F4
:103170000422FFF7DDF8002818BFFDF777FE20686E
:10318000B0F1804F1CD00021C4F20101884235D13A
:1031900000200F9043F63000C4F20200016841F0B5
:1031A0001001016000684FF4007100F010000F90F2
:1031B0000F980020C4F2020000F5805013E000BF19
:1031C00000200F9043F63000C4F20200016841F085
:1031D000010101600068012100F001000F900F98CB
:1031E0000020C4F202000F91022110910021CDE9CC
:1031F0001111012113910FA9FDF752FE14B010BD5A
:1032000080B540F2E42044F20041C2F20000C4F272
:10321000000100234FF00C0C4FF4E13280E80E0067
:10322000C0E90333C0E905C3C361FFF761FC0028AF
:1032300008BF80BDBDE88040FDF718BEFEE7000076
:10324000FEE700007047000070470000FEF766BA16
:10325000B0B592B0002443F64000CDE90A44CDE970
:1032600008440594CDE90344CDE901440094C4F237
:1032700002000168022541F080510160006800F001
:1032800080500090009847F200000094C4F20000C3
:10329000016841F4804101600068A82100F4804089
:1032A00000900098012006904FF4803007904FF472
:1032B00080000D9004200E90119006A80C95CDE989
:1032C0000F15FEF7F3FB28B1EFF3108072B600BFC5
:1032D000FEE700BF0F20CDE901054FF4A050049098
:1032E0004FF48050059001A805210394FEF7D0FA11
:1032F00020B1EFF3108072B6FEE700BF12B0B0BD90
:103300004EF68850CEF20000016841F47001016071
:103310007047000040F29C20C2F20000FEF750BF50
:1033200010B540F6FF3E0368C4F2000E40F2004CB8
:103330007045C4F2010C27DCB0F1804F31D040F26F
:103340000042C4F2000290422BD040F60002C4F2C8
:103350000002904225D041F6FF72C4F20002904272
:1033600029DC70453CDCB0F1804F5FD040F2004278
:10337000C4F20002904259D040F60002C4F20002AA
:10338000904253D056E000BF40F60042C4F2000223
:10339000904206D0604504D00022C4F2010290425F
:1033A000D9D14A6823F07003134341F6FF72C4F287
:1033B00000029042D5DD43F6FF72C4F20102904252
:1033C00022DC42F20002C4F2000290422ED000221F
:1033D000C4F20102904229D0604527D02AE000BF04
:1033E00040F60042C4F2000290421FD041F60002B3
:1033F000C4F20002904219D041F60042C4F2000229
:10340000904213D016E000BF44F20002C4F2010261
:1034100090420BD044F60002C4F20102904205D063
:1034200044F20042C4F20102904203D1CA6823F47C
:103430004073134323F080024B69D1F800E08C689D
:103440001A430260C46240F48062C0F828E062451A
:1034500004BF096901630121416110BD10B5044633
:103460000068D4E902C22369016921F44051114383
:103470000161626943EA0C01E3691143C2681943BF
:1034800049F20C639A431143C1604169A26921F476
:10349000407141F20043114340F48062C4F20103E1
:1034A0009A42416102D1FEF7B7FA01E0FEF7A0FAB5
:1034B000E16963681922B1F5004FA0FB020123D135
:1034C0005A00DB0FFCF7DCFE48F21F51C5F2EB118E
:1034D000A0FB01235A094FF69C73C0F6FF7303F15A
:1034E000805302FB0300322303EBC000A0FB010169
:1034F0004FF4F87000EA111000EB0210C1F3421112
:1035000008442168886010BD9A009B0FFCF7B8FE44
:1035100048F21F51C5F2EB11A0FB01235A094FF6E7
:103520009C73C0F6FF7302FB0300322303EB001011
:10353000A0FB0101F02000EA511000EB0210C1F3E2
:10354000431108442168886010BD0000FEE70000B8
:1035500048F20401411A002011F1030F38BF4FF067
:10356000FF3070470020704748F20101411A0020E7
:10357000032938BF0120704710B518B304460078FE
:103580003A281FD143F6BA51C0F600012046FCF795
:103590007FFFD8B143F6C151C0F600012046FCF7C9
:1035A00077FFB8B143F6B251C0F600012046FCF7F0
:1035B0006FFF01464FF0FF30002908BF48F20300BB
:1035C00010BD00BF4FF0FF3010BD00BF48F201003A
:1035D00010BD00BF48F2020010BD00004FF0FF30E8
:1035E0007047000070B548F2030398422ED048F2AD
:1035F0000203984258D1002A00F0988140F6006CEE
:10360000CEF2000C12F00304A2F1010E50D00B46D2
:1036100013F8010BDCF88050ED071CBFDCF80050FC
:103620005FEAC5754CD1012C704600F08E80487859
:10363000DCF88030DB071CBFDCF800305FEAC373C6
:1036400064D1022C73D18B1C901E7EE0002A00F006
:103650006D8140F6006CCEF2000C12F00304A2F172
:10366000010E29D00B4613F8010BDCF88050ED0752
:103670001CBFDCF800505FEAC57533D1012C7046E1
:1036800000F0EC804878DCF88030DB071CBFDCF809
:1036900000305FEAC37340F0C380022C40F0D18059
:1036A0008B1C901EDAE000BF4FF0FF3070BD00BFF2
:1036B00010460B4649E000BF10460B46CEE000BF67
:1036C0004FF060452E6836B92E6826B92E6816B9B7
:1036D0002E68002EF6D04FF060452870012C704601
:1036E00033D0A4E74FF060452E6836B92E6826B96E
:1036F0002E6816B92E68002EF6D04FF0604528705F
:10370000012C704600F0AA80BCE700BF4FF0604378
:103710001D6835B91D6825B91D6815B91D68002DCE
:10372000F6D04FF060431870022C3FF48CAF8878CD
:10373000DCF88030DB0701F103031CBFDCF800106C
:103740005FEAC17140F0F480D01EBEF1030F3CBFB0
:10375000002070BD4FF0604107E000BF0A7000BF5D
:10376000043803F1040300F0E1801A78DCF880608B
:10377000F6071CBFDCF800605FEAC6762CD15A78E9
:10378000DCF88060F6071CBFDCF800605FEAC676F4
:103790002ED19A78DCF88060F6071CBFDCF8006058
:1037A0005FEAC67630D1DA78DCF88060F6071CBFB5
:1037B000DCF800605FEAC676D2D000BF0E68002E4B
:1037C000CCD10E68002EC9D10E68002EC6D10E686D
:1037D000002EF3D0C2E700BF0E6836B90E6826B9D6
:1037E0000E6816B90E68002EF6D00A70C7E700BF43
:1037F0000E6836B90E6826B90E6816B90E68002E26
:10380000F6D00A70C5E700BF0E6836B90E6826B953
:103810000E6816B90E68002EF6D00A70C3E700BF16
:103820004FF060431D6835B91D6825B91D6815B98D
:103830001D68002DF6D04FF060431870022C3FF445
:103840002FAF8878DCF88030DB0701F103031CBF61
:10385000DCF800105FEAC1717AD1D01EBEF1030F0F
:103860003CBF002070BD4FF0604105E00A7000BF12
:10387000043803F1040359D01A78DCF88060F607A5
:103880001CBFDCF800605FEAC6762BD15A78DCF802
:103890008060F6071CBFDCF800605FEAC6762DD1B9
:1038A0009A78DCF88060F6071CBFDCF800605FEAFD
:1038B000C6762FD1DA78DCF88060F6071CBFDCF81A
:1038C00000605FEAC676D3D00E68002ECED10E68B7
:1038D000002ECBD10E68002EC8D10E68002EF3D07A
:1038E000C4E700BF0E6836B90E6826B90E6816B96F
:1038F0000E68002EF6D00A70C8E700BF0E6836B911
:103900000E6826B90E6816B90E68002EF6D00A7039
:10391000C6E700BF0E6836B90E6826B90E6816B93C
:103920000E68002EF6D00A70C4E700BF002070BDFC
:103930004FF060410C6834B90C6824B90C6814B9B4
:103940000C68002CF6D04FF060410870FCE600BF18
:103950004FF060410C6834B90C6824B90C6814B994
:103960000C68002CF6D04FF06041087075E700003D
:1039700080B582B0019040F2E420C2F2000001A9BB
:1039800001224FF0FF33FFF719F9019802B080BD13
:1039900070B582B03220FDF76FFA40F2AC1443F6F6
:1039A0003C06C2F20004C0F60C06642501AA2046BB
:1039B0004E21042301960095FDF708FC0520FDF734
:1039C0005BFA01AA20464E21042301960095FDF7DB
:1039D000FDFB0120FDF750FA01AA20464E210423E9
:1039E00001960095FDF7F2FB0A20FDF745FA42F635
:1039F0002C00C0F60C00019001AA20464E210423A1
:103A00000095FDF7E3FB0A20FDF736FA42F62C009D
:103A1000C8F68C00019001AA20464E21042300958F
:103A2000FDF7D4FB0120FDF727FA40F60C00C8F69D
:103A30008C00019001AA20464E2104230095FDF739
:103A4000C5FB0120FDF718FA40F60C00C1F61C007A
:103A5000019001AA20464E2104230095FDF7B6FBF4
:103A60000120FDF709FA0120FDF706FA40F60C00E7
:103A7000C6F66C00019001AA20464E210423009551
:103A8000FDF7A4FB0120FDF7F7F940F60C00CCF69A
:103A9000CC00019001AA20464E2104230095FDF799
:103AA00095FB02B070BD0000032811D8DFE800F0DC
:103AB00002060A0E41F080010AE000BF41F0C00199
:103AC00006E000BF41F0940102E000BF41F0D401E4
:103AD00080B582B021F00F00090100F10C0208301E
:103AE0008DF8050001F10C008DF8060001F10800C9
:103AF0008DF8070040F2AC108DF804204FF0640CF4
:103B0000C2F2000001AA4E210423CDF800C0FDF747
:103B10005DFB02B080BD000080B582B000F0F00116
:103B2000000101F10D0209318DF8051000F10D01C0
:103B300009308DF8070040F2AC108DF804208DF8A4
:103B400006104FF0640CC2F2000001AA4E210423BB
:103B5000CDF800C0FDF73AFB02B080BDF0B583B0F0
:103B6000017821B340F2AC14461E6427C2F200046F
:103B700002AD00BF21F00F00090100F10D02093074
:103B80008DF8090001F10D008DF80A0001F109001E
:103B90008DF808208DF80B0020464E212A4604237C
:103BA0000097FDF713FBB17801360029E2D103B08D
:103BB000F0BD000086B0FDF7BFFDFFF749FBFFF742
:103BC00043F9FFF771F9FFF7B3F9FFF78FF9FFF743
:103BD00017FBFFF769FAFFF7DBFE40F25424C2F24D
:103BE000000420460021FEF7F5FE20460421FEF7E2
:103BF00001FD40F29C24C2F2000420460021FEF7A1
:103C0000F9FC20460421FEF7F5FC40F27C1448F252
:103C10001F5546F2676943F6EC56C2F200040DF1F7
:103C2000040AC5F2EB1564274FF06708C6F266690F
:103C3000C0F600060FF23C1B81E000BF012000210E
:103C4000FFF732FF626A504648A1FCF79DFB606AAD
:103C500050FB05F14A0902EBD17101FB170149B292
:103C600001FB08F1C1F3C03202EBA12150FB09F2C4
:103C7000931003EBD27202EB8202A0EB4200C4E984
:103C8000010101F13000C0B2FFF746FF207930306A
:103C9000C0B2FFF741FF3046FFF760FF206A50FBDC
:103CA00005F14A0902EBD17101FB170149B201FB91
:103CB00008F1C1F3C03202EBA12150FB09F29310CD
:103CC00003EBD27202EB8202A0EB4200C4E90301D3
:103CD00001F13000C0B2FFF71FFF207B3030C0B2CF
:103CE000FFF71AFF3046FFF739FFE06950FB05F197
:103CF0004A0902EBD17101FB170149B201FB08F13E
:103D0000C1F3C03202EBA12150FB09F2931003EB87
:103D1000D27202EB8202A0EB4200C4E9050101F17C
:103D20003000C0B2FFF7F8FE207D3030C0B2FFF7A0
:103D3000F3FED4E90732616A5846FCF719FBE069E3
:103D40003C287FF47BAF206A002101303C28E161F0
:103D500020627FF473AF606A002101302162B0F10C
:103D6000180118BF0146616268E700BF44413A2567
:103D70006420000025643A25643A2564200D0A0079
:103D8000F1EE100A4FF6FF71C0F2C03120EA0100D7
:103D900040F04070E1EE100A7047000000000000A3
:103DA00000000102030406070809000000000102E8
:103DB00003043A535444455252003A535444494E32
:103DC000003A5354444F55540000000002000000D4
:103DD000040000000800000010000000FDFFFFFFCD
:103DE000FBFFFFFFF7FFFFFFEFFFFFFF3A000000C1
:103DF000103E00080000002020000000C401000860
:103E0000303E00082000002010090000E0010008FA
:103E100000000000000000000000000001000000A1
:103E2000100000000024F400FA0000000000000070
:040000050800018965
:00000001FF
